:1000000002080002001612001E1203C51203E78048
:02001000FE32BE
:070013000200111203F0329C
:10001B000200A312030F75A083D2A61202F5C2A68B
:10002B00120302D2A61202F5C2A61202F5D2A61232
:10003B0002F5C2A61202F5C2A0D2A61202F5C2A602
:10004B001202F57F281201F77F011201F77F0812C8
:10005B0001F77F0C1201F77F061201F77B007A0084
:10006B00794FE4FF1202677B007A0079567F011209
:10007B0002677B007A00795D7F021202677B007A50
:10008B000079647F031202677B007A00796B7F042F
:10009B001202677F010201F7C0E0C0F0C083C0828B
:1000AB00C0D075D000C000C001C002C003C004C0E6
:1000BB0005C006C007C28E0539E539B45010753935
:1000CB00007B007A00793E7D017F02120363E539E4
:1000DB0075F00584743325F0F8E6F532E53975F0E3
:1000EB00058404FD7F021202CAAF321203E4758D40
:1000FB00C0758B00D28ED007D006D005D004D003AC
:10010B00D002D001D000D0D0D082D083D0F0D0E0BC
:10011B003210214C756B61737A2054796D6F737A41
:10012B00756B00113E202020202020202020202035
:10013B0020202020200005330001020304074F106C
:10014B001010101010100756181818181818180738
:10015B005D1C1C1C1C1C1C1C07641E1E1E1E1E1E54
:10016B001E076B1F1F1F1F1F1F1F00BB010689824E
:10017B008A83E0225002E722BBFE02E32289828AB5
:10018B0083E49322BB010CE58229F582E5833AF5E2
:10019B0083E0225006E92582F8E622BBFE06E9251C
:1001AB0082F8E222E58229F582E5833AF583E4932E
:1001BB00228B0B8A0C890D7F011203A5AB0BE50D6E
:1001CB002410F9E4350CFA7F021203A5AB0BE50DF5
:1001DB002420F9E4350CFA7F031203A5AB0BE50DD4
:1001EB002430F9E4350CFA7F040203A5C2A4C2A59E
:1001FB00EFC4540F53A0F042A0D2A6C2A6EF540FE7
:10020B0053A0F042A0D2A6C2A643A00FD2A5C2A46F
:10021B00D20030000ED2A6A2A39200C2A6D2A6C2D2
:10022B00A680EF22D2A4C2A5EFC4540F53A0F04274
:10023B00A0D2A6C2A6EF540F53A0F042A0D2A6C2E2
:10024B00A643A00FD2A5C2A4D20130010ED2A6A202
:10025B00A39201C2A6D2A6C2A680EF228B0B8A0C58
:10026B00890DEFC394085023EF75F008A42440FFC9
:10027B001201F7E4FDAB0BAA0CA90D8D827583005F
:10028B0012018FFF12022F0DBD08EA7F800201F7CA
:10029B007B007A00793E7D01AF31120363E538258F
:1002AB003AFFE433FEC3EF9411EE64809480500266
:1002BB00053A7B007A007921AD3AAF31020363AC8A
:1002CB0007BC0107ED247FFF1201F7BC0207ED24E9
:1002DB00BFFF1201F7BC0307ED248FFF1201F7BC20
:1002EB000407ED24CFFF1201F722753C04753BE0A8
:1002FB00D53BFDD53CFA22753C14753B70D53BFDC7
:10030B00D53CFA22753CC3753B89D53BFDD53CFAF0
:10031B00227B007A00793E7D01AF311203630531F8
:10032B00E531B405037531017B007A007921AD3AD3
:10033B00AF310203637B007A00793E7D01AF31124E
:10034B000363E53AD394014002153A7B007A0079B6
:10035B0021AD3AAF310203638B088A09890A120275
:10036B00CAAB08AA09A90A120176600D050AE50AAB
:10037B00700205091203DE80E8227B007A00793EC9
:10038B007D01AF31120363D531037531047B007AE4
:10039B00007921AD3AAF310203638B0E8A0F8910BE
:1003AB007D011202CA1DAB0E0510E510AA0F7002DB
:1003BB00050F1203DE0DBD10ED22753101753A01EB
:1003CB0075380FD2A8D2AAD288D28AD2AB7589102F
:1003DB00D2AF2214F9120176FF02022F7BFF7A03B0
:1003EB0079F30201BCB28E22202020202020202075
:1003FB0020202020202020202020202020202020F2
:10040B0020202020202020202020202020202020E1
:10041B0020202020202020202020202020202020D1
:09042B00202020202020202000C8
:10080000787FE4F6D8FD758171020847020006E49E
:1008100093A3F8E493A34003F68001F208DFF48089
:1008200029E493A3F85407240CC8C333C4540F44D9
:1008300020C8834004F456800146F6DFE4800B01B3
:100840000204081020408090011CE47E019360BCEB
:10085000A3FF543F30E509541FFEE493A360010E4B
:10086000CF54C025E060A840B8E493A3FAE493A372
:10087000F8E493A3C8C582C8CAC583CAF0A3C8C593
:0C08800082C8CAC583CADFE9DEE780BE7B
:00000001FF
