:060000000209C20200DE4D
:03000B00020016DA
:100013000200FBC0E0C083C082C0D075D000C00620
:10002300C00775A000E50B64046011E50B6408606C
:100033000BE50B640C6005E50BB40F03120118AF5D
:100043000BEF3395E0FE743F2FF58274013EF58389
:10005300E493F5A0050BE50BB41303750B00D00770
:10006300D006D0D0D082D083D0E032E4F5A0C28CC9
:10007300E50A701EAF08EF3395E0FE74352FF58265
:1000830074013EF583E493F5A0D2B0C2B1750A01C1
:10009300801CAF09EF3395E0FE74352FF5827401B0
:1000A3003EF583E493F5A0C2B0D2B1E4F50AE4F5DA
:1000B3008CF58AD28C22E4F509F508F5A0D2B0C2FA
:1000C300B1F50AF50BD2A8D2AAD288D28A758901D2
:1000D300F58CF58AD2A9D2AFD28C22C0E0C0D0056C
:1000E30008E508B40A057508000509E508B40A031C
:1000F300750800D0D0D0E032C0E0C0D01508E508C4
:10010300B4FF057508091509E509B4FF0375090965
:10011300D0D0D0E03220B005D2B0C2B122C2B0D22A
:10012300B122EFDFBF7FE7EBEDD7DBDDB7BBBD77F9
:100133007B7D3F065B4F666D7D077F6F0102040881
:0F0143000810200101024040200101024020016C
:10080000E4F9FFFEF50CF50DF50EFDFCF50F1200F9
:10081000B9B90402E4F9BF0C02E4FFAB0109EB3300
:1008200095E0FA74252BF58274013AF583E493F58B
:100830009085900CE9FB3395E0FA74242BF58274D3
:10084000013AF583E493650C603DE4FEAB070FEBE2
:100850003395E0FA74292BF58274013AF583E49319
:10086000B50C1EEFFB3395E0FA74282BF58274016A
:100870003AF583E493659060EAAD07750D00750E57
:10088000010EBE03C780030F0F0FE50E6401450D77
:100890006003020811F50DF50EBD0A0B8C08850FDB
:1008A00009FCF50F0208118C0FBD0B02E4FDAC052D
:0308B0000208112A
:0C09C200787FE4F6D8FD75810F02080074
:00000001FF
